{
  "contractName": "ProofOfOwnership",
  "abi": [
    {
      "constant": true,
      "inputs": [
        {
          "name": "",
          "type": "bytes32"
        }
      ],
      "name": "assetOwners",
      "outputs": [
        {
          "name": "",
          "type": "address"
        }
      ],
      "payable": false,
      "stateMutability": "view",
      "type": "function",
      "signature": "0x4f6917a9"
    },
    {
      "constant": true,
      "inputs": [
        {
          "name": "asset",
          "type": "bytes32"
        }
      ],
      "name": "queryAsset",
      "outputs": [
        {
          "name": "",
          "type": "address"
        }
      ],
      "payable": false,
      "stateMutability": "view",
      "type": "function",
      "signature": "0xdf5f5582"
    },
    {
      "constant": false,
      "inputs": [
        {
          "name": "asset",
          "type": "bytes32"
        }
      ],
      "name": "registerAsset",
      "outputs": [],
      "payable": false,
      "stateMutability": "nonpayable",
      "type": "function",
      "signature": "0x5b01afb5"
    },
    {
      "constant": false,
      "inputs": [
        {
          "name": "asset",
          "type": "bytes32"
        },
        {
          "name": "owner",
          "type": "address"
        }
      ],
      "name": "transferAsset",
      "outputs": [],
      "payable": false,
      "stateMutability": "nonpayable",
      "type": "function",
      "signature": "0x6ad527f3"
    },
    {
      "constant": false,
      "inputs": [
        {
          "name": "asset",
          "type": "bytes32"
        }
      ],
      "name": "deleteAsset",
      "outputs": [],
      "payable": false,
      "stateMutability": "nonpayable",
      "type": "function",
      "signature": "0x77e6b6a6"
    }
  ],
  "bytecode": "0x608060405234801561001057600080fd5b506104a0806100206000396000f3fe60806040526004361061006d576000357c0100000000000000000000000000000000000000000000000000000000900463ffffffff1680634f6917a9146100725780635b01afb5146100ed5780636ad527f31461012857806377e6b6a614610183578063df5f5582146101be575b600080fd5b34801561007e57600080fd5b506100ab6004803603602081101561009557600080fd5b8101908080359060200190929190505050610239565b604051808273ffffffffffffffffffffffffffffffffffffffff1673ffffffffffffffffffffffffffffffffffffffff16815260200191505060405180910390f35b3480156100f957600080fd5b506101266004803603602081101561011057600080fd5b810190808035906020019092919050505061026c565b005b34801561013457600080fd5b506101816004803603604081101561014b57600080fd5b8101908080359060200190929190803573ffffffffffffffffffffffffffffffffffffffff1690602001909291905050506102c0565b005b34801561018f57600080fd5b506101bc600480360360208110156101a657600080fd5b810190808035906020019092919050505061037c565b005b3480156101ca57600080fd5b506101f7600480360360208110156101e157600080fd5b8101908080359060200190929190505050610438565b604051808273ffffffffffffffffffffffffffffffffffffffff1673ffffffffffffffffffffffffffffffffffffffff16815260200191505060405180910390f35b60006020528060005260406000206000915054906101000a900473ffffffffffffffffffffffffffffffffffffffff1681565b3360008083815260200190815260200160002060006101000a81548173ffffffffffffffffffffffffffffffffffffffff021916908373ffffffffffffffffffffffffffffffffffffffff16021790555050565b3373ffffffffffffffffffffffffffffffffffffffff1660008084815260200190815260200160002060009054906101000a900473ffffffffffffffffffffffffffffffffffffffff1673ffffffffffffffffffffffffffffffffffffffff161415610378578060008084815260200190815260200160002060006101000a81548173ffffffffffffffffffffffffffffffffffffffff021916908373ffffffffffffffffffffffffffffffffffffffff1602179055505b5050565b3373ffffffffffffffffffffffffffffffffffffffff1660008083815260200190815260200160002060009054906101000a900473ffffffffffffffffffffffffffffffffffffffff1673ffffffffffffffffffffffffffffffffffffffff16141561043557600080600083815260200190815260200160002060006101000a81548173ffffffffffffffffffffffffffffffffffffffff021916908373ffffffffffffffffffffffffffffffffffffffff1602179055505b50565b600080600083815260200190815260200160002060009054906101000a900473ffffffffffffffffffffffffffffffffffffffff16905091905056fea165627a7a7230582028f6c2f744ab6ac276bc01ba3369cbad41a55f2472f12a7b49636a1f2ef07bac0029",
  "source": "pragma solidity ^0.5.0;\n\ncontract ProofOfOwnership {\n\n    mapping (bytes32 => address) public assetOwners;\n\n    function queryAsset(bytes32 asset) view public returns (address) {\n\n        return assetOwners[asset];\n  }\n\n    function registerAsset(bytes32 asset) public {\n\n            assetOwners[asset] = msg.sender;\n\n  }\n\n    function transferAsset(bytes32 asset, address owner) public {\n\n        if (assetOwners[asset] == msg.sender)\n        {\n            assetOwners[asset] = owner;\n        }\n    }\n\n    function deleteAsset(bytes32 asset) public {\n\n        if (assetOwners[asset] == msg.sender)\n        {\n            assetOwners[asset] = 0x0000000000000000000000000000000000000000;\n        }\n    }\n\n\n}\n\n",
  "sourcePath": "/home/koshik/projects/blockchain101-kle/ethereum/proof_of_ownership/contracts/ProofOfOwnership.sol",
  "compiler": {
    "name": "solc",
    "version": "0.5.0+commit.1d4f565a.Emscripten.clang"
  },
  "schemaVersion": "3.0.6",
  "updatedAt": "2019-04-25T16:37:16.869Z",
  "devdoc": {
    "methods": {}
  },
  "userdoc": {
    "methods": {}
  }
}